:100000000C9435010C9421050C9466010C94660146
:100010000C9466010C9466010C9466010C946601C4
:100020000C9466010C9466010C9466010C946601B4
:100030000C9466010C9466010C9466010C946601A4
:100040000C9466010C9466010C9466010C94660194
:100050000C9466010C9466010C9466010C94770470
:100060000C9466010C94EB040C94C1040C9466018E
:100070000C9466010C9466010C9466010C94660164
:100080000C9466010C9466010C9466010C94660154
:100090000C9466010C9466010C9466010C94660144
:1000A0000C9466010C9466010C9466010C94660134
:1000B0000C9466010C9466010C9466010C94660124
:1000C0000C9466010C9466010C9466010C94660114
:1000D0000C9466010C9466010C9466010C94660104
:1000E0000C9466010C9494010C948C010C94A50161
:1000F0000C9498010C94E6020C9409030C944F03A1
:100100000C94B3010C949B010C94A1010C94CB01B1
:100110000C94C7010C94AB010C94C1010C94900198
:100120000C94BD010C94F5020C94AF010C942F05B6
:100130000C949C030C94B9010C94B9020C94170311
:100140000C9486010C94C6010000210024002700B5
:100150002A002D00300033000101000004010701D6
:100160000A0100002200250028002B002E0031008B
:10017000340002010000050108010B01000020000D
:100180002300260029002C002F003200000100006F
:10019000030106010901050505050705080808080A
:1001A000020202020A0A080804040404010101010F
:1001B000010101010303030303030303040707070A
:1001C0000C0C0C0C0C0C0C0C0202020206060606AF
:1001D000060606060B0B0B0B0B0B0B0B010210207C
:1001E000200808102040102040800201020108046D
:1001F0000201010204081020408080402010080401
:100200000201800402018040201008040201080459
:10021000020101020408102040800102040810209D
:10022000408000000A0B02090C0D0E0807030401B0
:1002300000000000000000000000000000000000BE
:10024000000000000000000000000000000012118B
:10025000100000000000000000000000000000008E
:1002600000000000000000002F0511241FBECFEF8A
:10027000D1E2DEBFCDBF00E00CBF12E0A0E0B2E0F3
:10028000E2E7F0E100E00BBF02C007900D92AE3450
:10029000B107D9F723E0AEE4B2E001C01D92AE3061
:1002A000B207E1F711E0C5E3D1E000E006C0219715
:1002B0000109802FFE010E942F08C433D10780E07E
:1002C0000807A9F70E945E050C9437080C940000FB
:1002D0008150823108F05AC0E82FF0E08827EC58AE
:1002E000FE4F8F4F0C942F089401980186018C01CA
:1002F0009001C6019B01A101A501AB01AF01B301B2
:10030000B901BD01C601C101C701CB0180918000C7
:100310008F77809380000895809180008F7DF9CF42
:1003200080918000877FF5CF84B58F7784BD089555
:1003300084B58F7DFBCF8091B0008F778093B00024
:1003400008958091B0008F7DF9CF809190008F77D4
:10035000809390000895809190008F7DF9CF8091D7
:100360009000877FF5CF8091A0008F778093A000C9
:1003700008958091A0008F7DF9CF8091A000877FA4
:10038000F5CF809120018F7780932001089580918F
:1003900020018F7DF9CF80912001877FF5CFCF930A
:1003A000DF93282F30E0F901EE5DFD4F8491F901D4
:1003B000E452FE4FD491F901EA56FE4FC491CC238A
:1003C000A1F081110E946801EC2FF0E0EE0FFF1FF9
:1003D000E458FE4FA591B491EC91ED2381E090E0BB
:1003E00009F480E0DF91CF91089580E090E0FACFAA
:1003F0001F93CF93DF93282F30E0F901EE5DFD4F7F
:100400008491F901E452FE4FD491F901EA56FE4F6E
:10041000C491CC23A9F0162F81110E946801EC2F02
:10042000F0E0EE0FFF1FEE59FE4FA591B4918FB78C
:10043000F894EC91111108C0D095DE23DC938FBFA6
:10044000DF91CF911F910895DE2BF8CFCF93DF93EB
:1004500090E0FC01E452FE4F24918A569E4FFC012D
:1004600084918823C9F090E0880F991FFC01E85B14
:10047000FE4FA591B491FC01EE59FE4FC591D49168
:1004800061110DC09FB7F8948C91209582238C93B5
:100490008881282328839FBFDF91CF910895623000
:1004A00051F49FB7F8943C91822F809583238C93CD
:1004B000E8812E2BEFCF8FB7F894EC912E2B2C9355
:1004C0008FBFEACF3FB7F89480915F0290916002AE
:1004D000A0916102B091620226B5A89B05C02F3F92
:1004E00019F00196A11DB11D3FBFBA2FA92F982F5A
:1004F0008827BC01CD01620F711D811D911D42E055
:10050000660F771F881F991F4A95D1F708958F921C
:100510009F92AF92BF92CF92DF92EF92FF924B01E8
:100520005C010E9462026B017C010E9462026C19F4
:100530007D098E099F09683E734081059105A8F3E6
:1005400021E0821A9108A108B10888EEC80E83E064
:10055000D81EE11CF11C81149104A104B10429F7F7
:10056000FF90EF90DF90CF90BF90AF909F908F90D3
:100570000895AF92BF92CF92DF92EF92FF920F93C6
:100580001F93CF93DF936C017B018B01040F151F29
:10059000EB015E01AE18BF08C017D10759F0699191
:1005A000D601ED91FC910190F081E02DC6011995E5
:1005B000892B79F7C501DF91CF911F910F91FF90A2
:1005C000EF90DF90CF90BF90AF900895FC01538DD6
:1005D000448D252F30E0842F90E0821B930B54171D
:1005E00010F0CF96089501970895FC01918D828DAA
:1005F000981761F0A28DAE0FBF2FB11D5D968C9143
:10060000928D9F5F9F73928F90E008958FEF9FEF81
:100610000895FC01918D828D981731F0828DE80F3D
:10062000F11D858D90E008958FEF9FEF0895FC01F7
:10063000918D228D892F90E0805C9F4F821B9109C4
:100640008F739927089583E692E00E94170321E0B3
:10065000892B09F420E0822F0895FC01A48DA80FB6
:10066000B92FB11DA35ABF4F2C91848D90E00196F4
:100670008F739927848FA689B7892C93A089B18914
:100680008C91837080648C93938D848D981306C0B5
:100690000288F389E02D80818F7D80830895EF9219
:1006A000FF920F931F93CF93DF93EC0181E0888F2C
:1006B0009B8D8C8D98131AC0E889F989808185FFFC
:1006C00015C09FB7F894EE89FF896083E889F9899E
:1006D00080818370806480839FBF81E090E0DF91A0
:1006E000CF911F910F91FF90EF900895F62E0B8DF3
:1006F00010E00F5F1F4F0F731127E02E8C8D8E11AE
:100700000CC00FB607FCFACFE889F989808185FF14
:10071000F5CFCE010E942D03F1CFEB8DEC0FFD2F15
:10072000F11DE35AFF4FF0829FB7F8940B8FEA89CF
:10073000FB8980818062CFCFCF93DF93EC01888DDE
:100740008823B9F0AA89BB89E889F9898C9185FD4C
:1007500003C0808186FD0DC00FB607FCF7CF8C91DA
:1007600085FFF2CF808185FFEDCFCE010E942D0362
:10077000E9CFDF91CF91089580E090E0892B29F0B7
:100780000E94230381110E94000080E090E0892BE9
:1007900049F080E090E0892B29F00E94000081114F
:1007A0000E94000080E090E0892B49F080E090E01A
:1007B000892B29F00E94000081110E94000080E036
:1007C00090E0892B49F080E090E0892B29F00E948D
:1007D000000081110C9400000895FC01019000209C
:1007E000E9F73197AF01481B590BBC0183E692E052
:1007F0000C94B9028F929F92AF92BF92CF92DF92E8
:10080000EF92FF920F931F93CF93DF93CDB7DEB795
:10081000A1970FB6F894DEBF0FBECDBF6C01990F44
:10082000EE08FF08F7FE41C06DE283E692E00E9409
:100830004F038C0122273327A9012C193D094E09AA
:100840005F0919A2CE0181967C019AE0892E912C34
:10085000A12CB12CCA01B901A50194010E940D0877
:10086000605DF70162937F01211531054105510556
:1008700089F790E080E0309719F0CF010E94ED03F6
:10088000800F911FA1960FB6F894DEBF0FBECDBFAB
:10089000DF91CF911F910F91FF90EF90DF90CF905C
:1008A000BF90AF909F908F900895A701960119A2D5
:1008B0008E010F5D1F4F8AE0C82ED12CE12CF12C48
:1008C000CA01B901A70196010E940D08605DF801F7
:1008D00062938F01211531054105510589F790E09B
:1008E00080E0309779F2CF010E94ED03CBCF1F92C9
:1008F0000F920FB60F9211242F933F938F939F93D4
:10090000AF93BF9380915B0290915C02A0915D02D6
:10091000B0915E0230915A0223E0230F2D3758F533
:100920000196A11DB11D20935A0280935B02909302
:100930005C02A0935D02B0935E0280915F02909191
:100940006002A0916102B09162020196A11DB11DE9
:1009500080935F0290936002A0936102B093620261
:10096000BF91AF919F918F913F912F910F900FBEAB
:100970000F901F90189526E8230F0296A11DB11D18
:10098000D2CF1F920F920FB60F9211240BB60F9277
:100990002F933F934F935F936F937F938F939F9387
:1009A000AF93BF93EF93FF9383E692E00E942D03F2
:1009B000FF91EF91BF91AF919F918F917F916F9137
:1009C0005F914F913F912F910F900BBE0F900FBEF3
:1009D0000F901F9018951F920F920FB60F9211242F
:1009E0000BB60F922F938F939F93EF93FF93E0910A
:1009F0007302F09174028081E0917902F0917A02A1
:100A000082FD1DC0908180917C028F5F8F73209149
:100A10007D02821741F0E0917C02F0E0ED59FD4F3C
:100A2000958F80937C02FF91EF919F918F912F91F1
:100A30000F900BBE0F900FBE0F901F9018958081E6
:100A4000F2CF1F920F920FB60F92112410924F0205
:100A500010924E020F900FBE0F901F901895E3E674
:100A6000F2E01382128288EE93E0A0E0B0E084838B
:100A70009583A683B78384E092E09183808385EC9D
:100A800090E09587848784EC90E09787868780EC58
:100A900090E0918B808B81EC90E0938B828B82EC49
:100AA00090E0958B848B86EC90E0978B868B118EF3
:100AB000128E138E148E10920D030895789484B5BF
:100AC000826084BD84B5816084BD85B5826085BD4A
:100AD00085B5816085BD80916E00816080936E00D8
:100AE00010928100809181008260809381008091CA
:100AF000810081608093810080918000816080937B
:100B000080008091B10084608093B1008091B0003A
:100B100081608093B0008091910082608093910009
:100B2000809191008160809391008091900081601C
:100B3000809390008091A10082608093A1008091B9
:100B4000A10081608093A1008091A00081608093CA
:100B5000A000809121018260809321018091210178
:100B60008160809321018091200181608093200128
:100B700080917A00846080937A0080917A0082600C
:100B800080937A0080917A00816080937A008091CE
:100B90007A00806880937A001092C100E09173021D
:100BA000F091740282E08083E0916F02F091700214
:100BB0001082E0917102F09172028FEC80831092AA
:100BC0007B02E0917702F091780286E08083E091E9
:100BD0007502F0917602808180618083E0917502D8
:100BE000F0917602808188608083E0917502F091B7
:100BF0007602808180688083E0917502F0917602B0
:100C000080818F7D8083F894E89A809169008E7F3F
:100C10008093690080916900826080936900789474
:100C20008FE087B93F9A62E084E10E94260261E08A
:100C300084E10E94F80162E085E10E94260261E001
:100C400085E10E94F80120E9422E55245394612C3D
:100C5000712C22242394312C80910D03882309F0D8
:100C6000F894E2EFF1E01491ECEAF1E08491E82FDE
:100C7000F0E0EE0FFF1FE458FE4FC591D49161E004
:100C800086E10E94260260E086E10E94F80162E1AE
:100C900070E080E090E00E94870261E086E10E94BF
:100CA000F80160E086E10E94260280E293E028815C
:100CB000212309F4F1C00197D1F780910D0381112F
:100CC0003BC1C0910803CF77C093080300910A038A
:100CD0000F7700930A036C2F70E090E080E00E9491
:100CE000AC07609300037093010380930203909319
:100CF0000303602F70E090E080E00E94AC076093F7
:100D0000040370930503809306039093070310E098
:100D1000D0E0B801012E000C880B990B0E94AE07A1
:100D20004B015C01209156023091570240915802CC
:100D3000509159020E94A7076E010D2E000CEE087B
:100D4000FF08811110C0C701B6010E94AE072091B3
:100D500052023091530240915402509155020E9428
:100D6000A7078823F1F182E192E00E94ED038EE172
:100D700092E00E94ED0383E292E00E94ED03C8013D
:100D80000E94FA0385E392E00E94ED038EE192E077
:100D90000E94ED0388E392E00E94ED03CE010E94E1
:100DA000FA0387E492E00E94ED038CE492E00E9453
:100DB000ED038AE492E00E94ED0380925602909245
:100DC0005702A0925802B0925902C701B6010E9480
:100DD000AE07609352027093530280935402909333
:100DE000550284E10E94CF019093510280935002FA
:100DF00085E10E94CF0183E692E00E94F5020B9705
:100E000021F4109251021092500280915002909160
:100E10005102892B21F430924F0220924E0201E0C0
:100E200012E0C0914E02D0914F02C130D10509F0BD
:100E300085C083E692E00E94F5020C9721F4D093DE
:100E40005102C0935002809150029091510201973B
:100E500021F410924F0210924E0208B968EC70E033
:100E600080E090E00E948702F4E0F8B968EC70E05E
:100E700080E090E00E94870288E088B968EC70E02A
:100E800080E090E00E94870218B968EC70E080E092
:100E900090E00E948702C5CF80E991E0288121235C
:100EA00019F40197D9F709CF80E991E0288121232E
:100EB00079F10197D9F701CF6A2F002309F4FDCE0C
:100EC000A881A12311F5662301F1083269F5841781
:100ED000950708F4AC0153014201841A950AA10850
:100EE000B10882E0B594A794979487948A95D1F736
:100EF000E69541F4EF2DF0E0E050FD4FB087F3941C
:100F0000B0E0E0E8015080E991E00197A9F6D5CE84
:100F1000F12CB0E0E0E8912C812C80E991E040E9EF
:100F200051E060E008E2CCCFBA016819790968178E
:100F30007907F0F2BE2BDCCF7894C3CECD2B21F411
:100F400061E08EE10E94F8010E94BC0385CE0E9400
:100F5000E90708F481E00895E89409C097FB3EF49E
:100F600090958095709561957F4F8F4F9F4F9923F6
:100F7000A9F0F92F96E9BB279395F6958795779574
:100F80006795B795F111F8CFFAF4BB0F11F460FF34
:100F90001BC06F5F7F4F8F4F9F4F16C0882311F08C
:100FA00096E911C0772321F09EE8872F762F05C0A0
:100FB000662371F096E8862F70E060E02AF09A953B
:100FC000660F771F881FDAF7880F9695879597F930
:100FD0000895990F0008550FAA0BE0E8FEEF1616CA
:100FE0001706E807F907C0F012161306E407F5071D
:100FF00098F0621B730B840B950B39F40A2661F091
:10100000232B242B252B21F408950A2609F4A14033
:10101000A6958FEF811D811D0895A1E21A2EAA1BAE
:10102000BB1BFD010DC0AA1FBB1FEE1FFF1FA21798
:10103000B307E407F50720F0A21BB30BE40BF50B95
:10104000661F771F881F991F1A9469F7609570951E
:10105000809590959B01AC01BD01CF010895EE0FE5
:10106000FF1F881F8BBF0790F691E02D1994F8940D
:02107000FFCFB0
:10107200000000004F03B902E6029C031703F502C9
:101082000903434F4D20726571756573740020200A
:1010920020200054656D70657261747572652069F7
:1010A20073203A200020430048756D6964697479A1
:0E10B200206973203A20002025000D0A00005E
:00000001FF
